:100000000C94471D0C94781D0C94781D0C94781D4D
:100010000C94781D0C94781D0C94781D0C94781D0C
:100020000C94781D0C94781D0C94781D0C94781DFC
:100030000C94781D0C94781D0C94781D0C94781DEC
:100040000C94781D0C94304D0C94781D0C94781DF4
:100050000C94781D0C94781D0C94467E0C9465CD00
:100060000C94781D0C94A0AE0C94781D0C94781D03
:100070000C94781D0C94781D0C94781D0C94781DAC
:100080000C9407550C94781D0C94781D0C94781DD5
:100090000C94781D0C94781D0C94781D0C94781D8C
:1000A0000C94781D0C94781D0C94D9540C94781DE4
:1000B0000C94781D0C94781D0C94781D0C94AB5402
:1000C0000C94781D0C94781D0C94781D0C94781D5C
:1000D0000C94781D0C94781D0C94781D0C94781D4C
:1000E0000C94781DE2CBE5CBD4CBD8CBDECB1CCCAB
:1000F000E9CBEDCBF3CBF7CBFBCB01CC05CC09CCDB
:100100001CCC0FCC13CC17CC81CC86CC8BCC95CC13
:100110009FCC18CDA9CCB1CCB9CCC3CCCDCCD7CC4D
:10012000E6CCF0CC18CDFACC04CD0ECD084AD73BA6
:100130003BCE016E84BCBFFDC12F3D6C74319ABDB6
:1001400056833DDA3D00C77F11BED9E4BB4C3E91DA
:100150006BAAAABE000000803F05A84CCDB2D44EC9
:10016000B93836A9020C50B9918688083CA6AAAACB
:100170002ABE000000803F004E414E494E4954596E
:10018000494E46CDCCCC3D0AD7233C17B7D1387762
:10019000CC2B329595E6241FB14F0A000020410078
:1001A00000C84200401C4620BCBE4CCA1B0E5AAEC2
:1001B000C59D74434F4D4D554E49434154494F4E93
:1001C0000044525952554E004552524F5253004925
:1001D0004E464F004543484F0047322F4733206279
:1001E000616420706172616D65746572730A005399
:1001F0006C6565702E2E2E00205A3A200020593A48
:10020000200042656420583A20004D6573682070D4
:100210006F696E742063616E6E6F74206265207208
:1002200065736F6C7665640A005445564F20546FB1
:10023000726E61646F2072656164792E005265731D
:10024000756D696E67207072696E7400436C6963C6
:100250006B20746F20726573756D652E2E2E0045B0
:100260006E642066696C65206C6973740A0042656F
:1002700067696E2066696C65206C6973740A005347
:1002800044207072696E74696E67206279746520AB
:10029000004E6F74205344207072696E74696E67EB
:1002A0000A0046696C652064656C657465643A0093
:1002B00044656C6574696F6E206661696C65642C59
:1002C0002046696C653A20006F70656E2066616932
:1002D0006C65642C2046696C653A200025697300C2
:1002E00025696D20256973002569682025696D20C1
:1002F00025697300256964202569682025696D20BA
:10030000256973002569792025696420256968209D
:1003100025696D20256973005072696E74207469B7
:100320006D653A2000000136372603FF3C3D380E4C
:10033000FF2E303E12FFFF0C080907FFFF1A1C18A2
:10034000FFFF08440A0743FFFFFFFFFFFF50726FE4
:100350007465637465642050696E0A0045256920E0
:100360002573005445564F20546F726E61646F20A0
:1003700072656164792E00D401CF01C801C101B357
:10038000016F66660044454255473A004B494C4C64
:1003900045442E20004D3131332053006F6B00480F
:1003A000656174696E6720646F6E652E0020573A30
:1003B00000452569202573005445564F20546F721F
:1003C0006E61646F2072656164792E0042656420FD
:1003D000646F6E652E0020573A00426564204865C0
:1003E0006174696E672E005445564F20546F726ECB
:1003F00061646F204F66662E004361703A454D453B
:100400005247454E43595F5041525345523A300A84
:10041000004361703A434153455F4C494748545F3C
:100420004252494748544E4553533A300A004361BB
:10043000703A544F47474C455F4C49474854533AEC
:10044000300A004361703A534F4654574152455F5A
:10045000504F5745523A300A004361703A4C455666
:10046000454C494E475F444154413A310A0043618B
:10047000703A5A5F50524F42453A310A0043617018
:100480003A4155544F4C4556454C3A310A00436168
:10049000703A5052494E545F4A4F423A310A004333
:1004A00061703A50524F47524553533A300A004315
:1004B00061703A4155544F5245504F52545F544524
:1004C0004D503A310A004361703A454550524F4D04
:1004D0003A310A004649524D574152455F4E414D0F
:1004E000453A4D61726C696E20312E312E342028D0
:1004F0004769746875622920534F555243455F43DD
:100500004F44455F55524C3A68747470733A2F2FBC
:100510006769746875622E636F6D2F4D61726C69C7
:100520006E4669726D776172652F4D61726C696E8E
:100530002050524F544F434F4C5F56455253494FF2
:100540004E3A312E30204D414348494E455F545973
:1005500050453A5445564F20546F726E61646F2077
:1005600045585452554445525F434F554E543A31C5
:1005700020555549443A63656465326132662D34CD
:100580003161322D343734382D396231322D6335B3
:10059000356336326633363766660A002F2F200001
:1005A0007A5F6D696E3A2000795F6D696E3A20005E
:1005B000785F6D696E3A20005265706F7274696E73
:1005C0006720656E6473746F7020737461747573E3
:1005D0000A004B64200023646566696E6520204430
:1005E000454641554C545F004B69200023646566C5
:1005F000696E65202044454641554C545F004B7060
:10060000200023646566696E652020444546415597
:100610004C545F00504944204175746F74756E6589
:100620002066696E69736865642120507574207452
:100630006865206C617374204B702C204B692061BD
:100640006E64204B6420636F6E7374616E747320EC
:1006500066726F6D2062656C6F7720696E746F20B3
:10066000436F6E66696775726174696F6E2E680A92
:1006700000504944204175746F74756E6520666141
:10068000696C6564212074696D656F75740A00502A
:100690004944204175746F74756E65206661696C9C
:1006A0006564212054656D70657261747572652092
:1006B000746F6F20686967680A00204B643A2000F5
:1006C000204B693A2000204B703A20000A20436CEE
:1006D000617373696320504944200A002054753ABD
:1006E0002000204B753A2000206D61783A200020D0
:1006F0006D696E3A200020643A20002062696173BF
:100700003A20004163746976652045787472756497
:1007100065723A2000556E6B6E6F776E20636F6D59
:100720006D616E643A2022004572726F722077729A
:100730006974696E6720746F20454550524F4D2192
:100740000A00290A002062797465733B2063726392
:10075000200053657474696E67732053746F7265FB
:1007600064202800202863616C63756C6174656483
:1007700029210A0020213D2000454550524F4D209F
:10078000435243206D69736D61746368202D202886
:1007900073746F726564292000290A0020627974DD
:1007A00065733B2063726320002073746F7265640D
:1007B0002073657474696E677320726574726965FD
:1007C000766564202800204D61726C696E3D563359
:1007D00039290A0028454550524F4D3D00454550A6
:1007E000524F4D2076657273696F6E206D69736D1F
:1007F00061746368200048617264636F646564209B
:1008000044656661756C742053657474696E6773B2
:10081000204C6F616465640A00D0070000D00700B7
:1008200000780000001027000000007A4300007AE2
:10083000430000F04100005C42AE879F42AE879FBC
:100840004222A5C7430000C84320204D383531203F
:100850005A005A2D50726F6265204F666673657438
:1008600020286D6D293A0A002044002049002020EC
:100870004D33303420500020440020490020204DCA
:100880003330312050005049442073657474696ED0
:1008900067733A0A002046002042002048002020CA
:1008A0004D3134352053004D6174657269616C209F
:1008B00068656174757020706172616D65746572D0
:1008C000733A0A00205A0020204D34323020530061
:1008D0004175746F20426564204C6576656C696E65
:1008E000673A0A00205A0020590020204D32303645
:1008F000205800486F6D65206F66667365743A0A0C
:1009000000204500205A00205900205800204200B5
:1009100020540020204D3230352053004164766150
:100920006E6365643A20533C6D696E5F666565640D
:10093000726174653E20543C6D696E5F74726176BD
:10094000656C5F66656564726174653E20423C6DEE
:10095000696E5F7365676D656E745F74696D655F01
:100960006D733E20583C6D61785F78795F6A65727F
:100970006B3E205A3C6D61785F7A5F6A65726B3EB0
:1009800020453C6D61785F655F6A65726B3E0A0069
:1009900020540020520020204D323034205000419D
:1009A0006363656C65726174696F6E2028756E692A
:1009B00074732F7332293A20503C7072696E745FE1
:1009C000616363656C3E20523C726574726163744E
:1009D0005F616363656C3E20543C74726176656C44
:1009E0005F616363656C3E0A00204500205A002069
:1009F000590020204D3230312058004D6178696D0A
:100A0000756D20416363656C65726174696F6E20FA
:100A100028756E6974732F7332293A0A00204500D5
:100A2000205A0020590020204D3230332058004DEC
:100A30006178696D756D2066656564726174657352
:100A40002028756E6974732F73293A0A00204500B7
:100A5000205A0020590020204D393220580053746C
:100A60006570732070657220756E69743A0A002093
:100A7000204D3230302044300A0020204D323030BA
:100A80002044002044697361626C65640A00466911
:100A90006C616D656E742073657474696E67733A0A
:100AA0000020204D3134392043203B20556E69749D
:100AB0007320696E2043656C736975730A0020208A
:100AC000473231202020203B20556E697473206905
:100AD0006E206D6D0A0024F4D43050C38E20C2A263
:100AE0004017828B7011127A910D816CD90AA8611E
:100AF000E108C7586607615143061E4B5D05C145B5
:100B0000A7041A411104093D980371393103403695
:100B1000DB0265339102D4305402802E1D02632C17
:100B2000EE01752AC501B028A001102781018F258B
:100B300064012B244B01E0223401AC211F018D20E4
:100B40000D01801FFC00841EED00971DDF00B81C06
:100B5000D200E61BC600201BBC00641AB200B2190A
:100B6000A8000A19A0006A189900D117910040172F
:100B70008B00B516840031167E00B31579003A1546
:100B80007300C7146F0058146A00EE1366008813D0
:100B9000630025135E00C7125B006C12570015122C
:100BA0005400C111510070114F0021114B00D6109B
:100BB00049008D1047004610440002104200C00F4B
:100BC0004000800F3E00420F3C00060F3B00CB0E62
:100BD0003800930E37005C0E3500270E3400F30DFD
:100BE0003200C10D3100900D3000600D2E00320D2D
:100BF0002D00050D2C00D90C2B00AE0C2900850C06
:100C000029005C0C2700350C27000E0C2600E80B91
:100C10002400C40B2400A00B23007D0B23005A0BDF
:100C20002100390B2100180B2000F80A1F00D90AF7
:100C30001E00BB0A1E009D0A1D00800A1D00630ADB
:100C40001C00470A1B002C0A1B00110A1A00F70996
:100C50001A00DD091900C4091900AB09190092092D
:100C600017007B091800630917004C0916003609A4
:100C70001600200916000A091500F5081500E008FD
:100C80001400CC081400B8081400A408140090083C
:100C900013007D0812006B08130058081200460864
:100CA0001200340811002308110012081100010875
:100CB0001100F0071000E0071000D0071000C00777
:100CC0001000B0070F00A107100091070E00830766
:100CD0000F0074070F0065070E0057070E00490745
:100CE0000E003B070D002E070E0020070D00130716
:100CF0000D0006070D00F9060C00ED060D00E006DC
:100D00000C00D4060C00C8060C00BC060C00B00693
:100D10000C00A4060B0099060C008D060B00820641
:100D20000B0077060B006C060B0061060A005706E5
:100D30000B004C060A0042060A0038060A002E067E
:100D40000A0024060A001A060A001006090007060F
:100D50000A00FD050900F4050900EB050900E2059C
:100D60000900D9050900D0050900C7050900BE051D
:100D70000900B5050800AD050800A50509009C059A
:100D80000800940508008C050800840508007C050F
:100D90000800740508006C050700650508005D057E
:100DA0000700560508004E050700470507004005E7
:100DB000080038050700310507002A05070023054C
:100DC00007001C050600160507000F0507000805AB
:100DD000060002050700FB040600F5040700EE0408
:100DE0000600E8040600E2040700DB040600D50460
:100DF0000600CF040600C9040600C3040600BD04B3
:100E00000600B7040600B1040500AC040600A60401
:100E10000600A00405009B0406009504050090044C
:100E200006008A04050085040500800406007A0493
:100E3000050075040500700405006B0405006604D8
:100E40000500610405005C04050057040500520418
:100E500005004D04050048040500430405003E0458
:100E600004003A04050035040500300404002C0495
:100E7000050027040400230405001E0404001A04CE
:100E8000040016040500110404000D040400090404
:100E900005000404040000040400FC030400F8033B
:100EA0000400F4030400F0030400EC030400E8036E
:100EB0000400E4030400E0030400DC030400D8039E
:100EC0000400D4030400D0030400CC030400C803CE
:100ED0000300C503030024F404D9201BC40C5C0EDA
:100EE0009804C4095F0265077101F405F900FB0469
:100EF000B30048048700C103690058035500030389
:100F00004500BE023A008402310053022A00290241
:100F1000250004022000E4011C00C8011900AF01F3
:100F20001700980114008401130071011000610181
:100F3000100051010E0043010D0036010B002B0182
:100F40000B0020010B00150109000C010900030131
:100F50000800FB000800F3000800EB000700E400B5
:100F60000600DE000600D8000600D2000600CC0015
:100F70000500C7000500C2000500BD000400B9005F
:100F80000400B5000400B1000400AD000400A90095
:100F90000400A5000300A20003009F0004009B00C2
:100FA00003009800030095000200930003009000E6
:100FB00003008D0002008B00030088000200860001
:100FC000020084000300810002007F0002007D0017
:100FD00002007B0002007900020077000100760029
:100FE00002007400020072000100710002006F0034
:100FF00002006D0001006C0002006A00010069003F
:101000000200670001006600010065000100640045
:1010100002006200010061000100600001005F0049
:1010200002005D0001005C0001005B0001005A004D
:10103000010059000100580001005700010056004E
:10104000010055000100540001005300000053004E
:1010500001005200010051000100500001004F004A
:1010600001004E0000004E0001004D0001004C0048
:1010700001004B0000004B0001004A000100490044
:101080000100480000004800010047000100460040
:10109000000046000100450000004500010044003A
:1010A0000100430000004300010042000000420034
:1010B00001004100000041000100400001003F002C
:1010C00000003F0001003E0000003E0001003D0026
:1010D00000003D0001003C0000003C0000003C001E
:1010E00001003B0000003B0001003A0000003A0014
:1010F000010039000000390001003800000038000C
:101100000000380001003700000037000100360001
:1011100000003600000036000100350000003500F8
:1011200000003500010034000000340000003400ED
:1011300001003300000033000000330001003200E2
:1011400000003200000032000100310000003100D8
:1011500000003100010030000000300000003000CD
:1011600001002F0000002F0000002F0000002F00C2
:1011700001002E0000002E0000002E0001002D00B6
:1011800000002D0000002D0000002D0001002C00AB
:1011900000002C0000002C0000002C0001002B009F
:1011A00000002B0000002B0000002B0001002A0093
:1011B00000002A0000002A0000002A000100290087
:1011C000000029000000290000002900000029007B
:1011D000010028000000280000002800000028006E
:1011E0000000280001002700000027000000270061
:1011F0000000270000002700010026000000260054
:101200000000260000002600000026000100250046
:10121000000025000000250000002500000025003A
:10122000000025000100240000002400000024002C
:10123000000024000000240001002300000023001F
:101240000000230000002300000023000000230012
:101250000000230001002200000022000000220004
:1012600000002200000022000000220001002100F6
:1012700000002100000021000000210000002100EA
:1012800000002100000021000100200000002000DB
:1012900000002000000020000000200000002000CE
:1012A000000020000000200001001F0000001F00BF
:1012B00000001F0000001F0000001F0000001F00B2
:1012C00000001F0001001E0000001E0000001E00A4
:1012D00000001E0000004D383420582059205A20AC
:1012E00045004E6F204C696E65204E756D626572CB
:1012F000207769746820636865636B73756D2C2053
:101300004C617374204C696E653A20004B494C4C1B
:1013100045442E200053544F505045442E20005039
:1013200072696E7465722073746F70706564206486
:10133000756520746F206572726F72732E20466916
:101340007820746865206572726F7220616E642007
:10135000757365204D39393920746F207265737447
:101360006172742E202854656D7065726174757297
:10137000652069732072657365742E20536574202F
:101380006974206166746572207265737461727429
:10139000696E67290A004E6F20436865636B737539
:1013A0006D2077697468206C696E65206E756D625A
:1013B00065722C204C617374204C696E653A200074
:1013C000636865636B73756D206D69736D617463BC
:1013D000682C204C617374204C696E653A20004C77
:1013E000696E65204E756D626572206973206E6F3F
:1013F00074204C617374204C696E65204E756D626B
:1014000065722B312C204C617374204C696E653AE7
:1014100020004D313130004D3331004D38342058EB
:101420002059205A2045005344207265616420658C
:1014300072726F720A00446F6E65207072696E740A
:10144000696E672066696C650A0020496E76616C7A
:10145000696420657874727564657220000000000C
:101460000000000000000000000000A04300009603
:10147000430000C84353544F502063616C6C656453
:101480002062656361757365206F6620424C546FFE
:10149000756368206572726F72202D207265737497
:1014A0006172742077697468204D3939390A0053A4
:1014B000544F502063616C6C656420626563617594
:1014C0007365206F6620424C546F756368206572A7
:1014D000726F72202D207265737461727420776947
:1014E0007468204D3939390A0042696C696E65614A
:1014F00072204C6576656C696E6720477269643A44
:101500000A0020746F6F206C6F6E672065787472AC
:101510007573696F6E2070726576656E7465640AA6
:101520000020636F6C6420657874727573696F6EE8
:101530002070726576656E7465640A000000A040D4
:101540000000A04000000040205A3A200020593AF4
:10155000200042656420583A2000534420636172A1
:1015600064206F6B0A006F70656E526F6F74206637
:1015700061696C65640A00766F6C756D652E696EC5
:101580006974206661696C65640A00534420696E61
:101590006974206661696C0A006175746F25692E33
:1015A00067004D3234004D32332025730057726985
:1015B00074696E6720746F2066696C653A20006FED
:1015C00070656E206661696C65642C2046696C6587
:1015D0003A20006F70656E206661696C65642C202E
:1015E00046696C653A200046696C652073656C65D8
:1015F000637465640A002053697A653A200046697D
:101600006C65206F70656E65643A20006F70656E62
:10161000206661696C65642C2046696C653A20001F
:101620002066696C653A20004E6F7720002220709A
:101630006F73002220706172656E743A22005355F8
:1016400042524F5554494E452043414C4C20746101
:10165000726765743A22004B494C4C45442E200079
:10166000747279696E6720746F2063616C6C20738B
:1016700075622D67636F64652066696C657320779A
:1016800069746820746F6F206D616E79206C657667
:10169000656C732E204D4158206C6576656C206911
:1016A000733A004572726F723A0070012C0190011A
:1016B0002701B0012201C0011D01F0011801100233
:1016C000130130020E016002090190020401C00200
:1016D000FF000003FA004003F5008003F000D00390
:1016E000EB002004E6007004E100E004DC004005AB
:1016F000D700C005D2004006CD00D006C800800744
:10170000C3003008BE00F008B900C009B400B00A38
:10171000AF00B00BAA00D00CA500000EA000500F27
:101720009B00C01096005012910000148C00C01550
:101730008700B0178200B0197D00D01B7800001E12
:10174000730040206E0090226900F024640040275E
:101750005F0090295A00E02B5500102E50002030D9
:101760004B0010324600E033410090353C0010370A
:10177000370070383200A0392D00B03A2800A03B65
:101780002300603C1E00103D1900903D1400103EE7
:101790000F00703E0A00C03E0500003F0000403FC1
:1017A000FBFF803FF6FFC03FF1FF544845524D41DB
:1017B0004C2052554E4157415900546865726D6135
:1017C0006C2052756E61776179004572723A204DD6
:1017D000494E54454D5020424544004572723A20CE
:1017E0004D494E54454D50004D494E54454D5020A5
:1017F000747269676765726564004572723A204D5C
:10180000415854454D5020424544004572723A209B
:101810004D415854454D50004D415854454D502070
:1018200074726967676572656400000000000000FB
:1018300000000000000000000000000000000000A8
:101840000000000000000000000000000000000098
:1018500000000000000000000000000001FFFF0089
:10186000000000000000000000000001FFFFFFFF7B
:1018700000000000000000000000001FFFFFFFFF4D
:10188000F000000000000000000000FFE000FFFF8B
:10189000FE00000000000000000003F00000003F18
:1018A000FFC00000000000000000078000000000F2
:1018B000FFE000000000000000000E07FC00000038
:1018C0000FF000000000000000000CFF000000000E
:1018D00001F800000000000000000FE00000000020
:1018E000007800000000000000000FC000000000B1
:1018F0000038000000000000000007C000000001E8
:10190000E070000000000000000001E000000000A6
:101910007CF00000000000000000007800000000E3
:101920007FF00000000000000000010FC000000177
:10193000FFE000000000000000000101FF80003F08
:10194000E3E00000000000000000018007FFFFFC52
:101950000FC0000000000000000001C000000000F7
:101960003F80000000000000000000E000000001D7
:10197000FF00000000000000000000380000002F01
:10198000FC000000000000000000001E000000FF3E
:10199000F8000000000000000000000380000FFEBF
:1019A00078000000000000000000000040003E0041
:1019B00070000000000000000000000000000000B7
:1019C00070000000000000000000000000000000A7
:1019D000F000000000000000000000000000000116
:1019E000E00000000000000000000006000000070A
:1019F000C000000000000000000000030000001F05
:101A0000000000000000000000000001C00000FC19
:101A100000000000000000000000000078000FEC53
:101A20000000000000000000000000000400100E94
:101A30000000000000000000000000000000001E88
:101A40000000000000000000000000000000007C1A
:101A5000000000000000000000000000000000F096
:101A6000000000000000000000000000000007E08F
:101A700000000000000000000000000000003F60C7
:101A800000000000000000000000000000000060F6
:101A9000000000000000000000000000080000E05E
:101AA000000000000000000400000000070003C068
:101AB00000000000000001FE0000000003800F8015
:101AC00000000000000001FC0000000000C07F00DA
:101AD00000000000000000F8000000000000C3004B
:101AE00000080003000F807C0000000000000701D8
:101AF000FDFFEFE7833F867C3F80000000000E077C
:101B0000FFFFF7EF8FFF1FFC7FC0000000003C1FAE
:101B1000FFFDFBFFDFFF3FFCFFE000000000761F42
:101B2000FE7BFBFFDFFF7FFDFFE000000000061EE5
:101B3000067BFBFFFFFF7FFFE0E0000000001C1CB6
:101B4000067BF3F7B81E707B80E000000001F818F8
:101B50001E7C03E7BEFE7FFB81C000000000F01F7B
:101B6000FE7E01E7BFFFFFFFFFC000000003F80F8C
:101B7000FCFF87E7BFFFFFFFFFC000000003F00787
:101B8000F9FF87E79FFFBF7EFF8000000001F003A1
:101B9000F1E00027FF1000403F0000000000C000FF
:101BA00000000000E0000000000000000000000055
:101BB0000000000000000000000000000000000025
:101BC0000000000000000000000000000000000015
:101BD0000000000000000000000000000000000005
:101BE00000000000000000000000000000000000F5
:101BF00000000000000000000000000000000000E5
:101C000000000000000000000000000000000000D4
:101C100000000000000000000000000000000000C4
:101C20000000000000000000000053746F772042A5
:101C30004C546F756368004D32383020503020535B
:101C40003930004465706C6F7920424C546F756375
:101C500068004D3238302050302053313000424C33
:101C6000546F7563682053656C662D5465737400FA
:101C70004D323830205030205331323000526573AD
:101C8000657420424C546F756368004D32383020C3
:101C900050302053313630004D61696E0047323884
:101CA0000A424544204C4556454C20446F6E650021
:101CB0004731205A31302046353030300A47312004
:101CC000583230205932300A4731205A300A4245C2
:101CD00044204C4556454C20446F6E6500473120EA
:101CE0005A31302046353030300A473120583238AA
:101CF00030205932300A4731205A300A42454420B8
:101D00004C4556454C20446F6E65004731205A3192
:101D1000302046353030300A4731205832383020B4
:101D2000593238300A4731205A300A424544204C53
:101D30004556454C20446F6E65004731205A31307E
:101D40002046353030300A47312058323020593261
:101D500038300A4731205A300A424544204C455613
:101D6000454C20446F6E6500526561722052696770
:101D700068740052656172204C6566740046726F2B
:101D80006E742052696768740046726F6E74204CDE
:101D900065667400486F6D65004D61696E00507234
:101DA000696E742070617573656400005072696EAD
:101DB000742061626F72746564005072696E742081
:101DC00066726F6D2053440053746F702070726997
:101DD0006E7400526573756D65207072696E740063
:101DE0004E6F2053442063617264005061757365C7
:101DF000207072696E7400436F6E74726F6C005065
:101E00007265706172650054756E65004375737418
:101E10006F6D20436F6D6D616E647300496E666F08
:101E20002073637265656E004261627973746570D8
:101E300070696E67205800426162797374657070D2
:101E4000696E6720590042616279737465707069C8
:101E50006E67205A004261627973746570205A007F
:101E600042616279737465702059004261627973CE
:101E7000746570205800466C6F7700466C6F770071
:101E8000466C6F770046616E20737065656400462E
:101E9000616E2073706565640046616E20737065C5
:101EA00065640042656400426564004E6F7A7A6C36
:101EB00065004E6F7A7A6C650053706565640053F7
:101EC00070656564005370656564004D61696E00FE
:101ED00056652D6A65726B0056652D6A65726B00DA
:101EE00056652D6A65726B00567A2D6A65726B00B5
:101EF000567A2D6A65726B0056792D6A65726B0091
:101F000056792D6A65726B0056792D6A65726B0081
:101F100056782D6A65726B0056782D6A65726B0073
:101F200056782D6A65726B004D6F74696F6E00454F
:101F300073746570732F6D6D004573746570732FC6
:101F40006D6D005A73746570732F6D6D005A7374E4
:101F50006570732F6D6D005973746570732F6D6D9F
:101F6000005973746570732F6D6D005873746570CC
:101F7000732F6D6D005873746570732F6D6D004D08
:101F80006F74696F6E0053746570732F6D6D004AC6
:101F900065726B00416363656C65726174696F6E35
:101FA0000056656C6F63697479005A204F666673DA
:101FB0006574005A204F666673657400436F6E74D3
:101FC000726F6C0046696C2E204469612E00466970
:101FD0006C2E204469612E004F6666004F6E200013
:101FE0004520696E206D6D3300436F6E74726F6CA7
:101FF0000043616E6E6F7420656E74657220737538
:10200000626469723A2000022E2E004D61696E00F2
:102010004578747275646572004D6F7665205A005C
:102020004D6F76652059004D6F76652058005072CF
:102030006570617265004D3530320A4D35303000C3
:10204000526573746F7265206661696C7361666551
:10205000004C6F61642073657474696E6773004926
:102060006E697469616C697A6520454550524F4DBF
:102070000053746F72652073657474696E677300C2
:10208000424C546F7563680046696C616D656E748F
:10209000004D6F74696F6E0054656D706572617488
:1020A000757265004D61696E005072656865617496
:1020B0002041425320636F6E66005072656865610F
:1020C0007420504C4120636F6E66005049442D448B
:1020D000005049442D44005049442D490050494482
:1020E0002D49005049442D50005049442D500020A6
:1020F0000820466163740020082046616374002054
:1021000008204D6178002008204D617800200820CB
:102110004D6178002008204D696E002008204D692F
:102120006E002008204D696E004F6666004F6E20DD
:10213000004175746F74656D700046616E20737038
:102140006565640046616E20737065656400466174
:102150006E207370656564004265640042656400CA
:102160004E6F7A7A6C65004E6F7A7A6C6500436FB9
:102170006E74726F6C0053746F7265207365747443
:10218000696E67730042656400426564004265647D
:10219000004E6F7A7A6C65004E6F7A7A6C65004EED
:1021A0006F7A7A6C650046616E20737065656400B5
:1021B00046616E2073706565640046616E207370C1
:1021C0006565640054656D70657261747572650053
:1021D00020706F736974696F6E206F7574206F66FD
:1021E0002072616E67652E0A003F50726F62652033
:1021F00000486F6D6520257325732573206669720D
:102200007374002066697273740A005A005900588A
:1022100000486F6D65200052756E6E696E672069AB
:102220006E204452592D52554E206D6F64650A0040
:10223000473239204175746F20426564204C6576C1
:10224000656C696E670A0028422961636B00284645
:1022500029726F6E74002852296967687400284CCF
:1022600029656674003F2856296572626F73652080
:102270006C6576656C20697320696D706C6175732F
:1022800069626C652028302D34292E0A0042616471
:10229000205A2076616C75650A004E6F2062696C69
:1022A000696E65617220677269640A004E6F206D05
:1022B0006F76652E00202F002042403A0020403AE1
:1022C000004D31343520533C696E6465783E206F93
:1022D0007574206F662072616E67652028302D311D
:1022E000290A00205A3A0020593A0020436F756E9F
:1022F0007420583A0020453A00205A3A0020593AB2
:1023000000583A005072656865617420504C412055
:10231000456E64005072656865617420504C4120C0
:10232000426564005072656865617420504C4100DC
:1023300050726570617265005072656865617420E5
:1023400041425320456E6400507265686561742097
:102350004142532042656400507265686561742093
:102360004142530050726570617265004D343238DD
:10237000004D323830205030205331363000424C3E
:10238000546F7563682053656C662D5465737400D3
:102390004D32383020503020533132300050726589
:1023A00068656174204142530050726568656174CC
:1023B00020504C4100436F6F6C646F776E00526524
:1023C00073657420424C546F75636800446973618F
:1023D000626C65207374657070657273004D38347B
:1023E0000053657420686F6D65206F666673657451
:1023F0007300426564204C6576656C696E670047C2
:1024000032380A47323900486F6D65205A0047322A
:1024100038205A00486F6D652059004732382059DE
:1024200000486F6D652058004732382058004175CC
:10243000746F20686F6D6500473238004D6F7665A8
:102440002061786973004D61696E004D6F7665207B
:1024500058004D6F76652059004D6F7665205A0003
:102460004578747275646572004D6F766520302E04
:10247000316D6D004D6F766520316D6D004D6F765D
:10248000652031306D6D004D6F7665206178697320
:10249000004578747275646572004D6F7665205AD8
:1024A000004D6F76652059004D6F766520580062AB
:1024B0007573793A2070617573656420666F722058
:1024C000696E7075740A00627573793A207061756F
:1024D00073656420666F7220757365720A00627599
:1024E00073793A2070726F63657373696E670A005F
:1024F0004B494C4C45442E20004B494C4C206361C9
:1025000075736564206279204B494C4C2062757468
:10251000746F6E2F70696E0A004B494C4C45442E07
:1025200020004B494C4C20636175736564206279CF
:1025300020746F6F206D75636820696E61637469C4
:1025400076652074696D65202D2063757272656EE5
:102550007420636F6D6D616E643A2000506C65612C
:102560007365207265736574005052494E5445522C
:102570002048414C544544005072696E7465722085
:1025800068616C7465642E206B696C6C282920630B
:10259000616C6C6564210A00656E717565756569AD
:1025A0006E6720220053544F505045442E20005057
:1025B00072696E7465722073746F707065642064E4
:1025C000756520746F206572726F72732E20466974
:1025D0007820746865206572726F7220616E642065
:1025E000757365204D39393920746F2072657374A5
:1025F0006172742E202854656D70657261747572F5
:10260000652069732072657365742E20536574208C
:102610006974206166746572207265737461727486
:10262000696E67290A000000000000000000000039
:1026300000000000704200007042000000410000F5
:1026400000005761726E696E673A20486F6D696E5F
:10265000672042756D702044697669736F72203C03
:1026600020310A000202040000A04300009643004B
:1026700000C843FFFFFF7C3C3E5E2B3D3F2F5B5D70
:102680003B2C2A225C0025753A2530327500253016
:1026900032753A2530327500257564202530327543
:1026A0003A25303275005A005900580009200000C0
:1026B00000000000000000000000007FFFE00000BC
:1026C000000000000000000000007000E0000000BA
:1026D00000000000000000000061F8600000000041
:1026E000000000000000000041F820000000000091
:1026F0000000000000000040F0200000000000008A
:102700000000000000004060200000000000000009
:1027100000000000005801A07F80000000000000C1
:10272000004104005C63A0FFC00000000000000046
:102730002082005EF7A0FFC0000000000000002023
:1027400082005EF7A0FFC00000000000000041040E
:10275000005C63A07F800000000000000082080091
:102760005801A07F8000000000000001041000401C
:102770006020FFC00000000000000104100040F0D5
:1027800020FFC00000000000000082080041F82087
:10279000FFC00000000000000041040061F8603F3D
:1027A00000000000000000000000007000E01E00BB
:1027B00000000000000001FFFF807FFFE00C000030
:1027C000000000000001FFFF80000000000000008A
:1027D00000000000000000007FFFE000000000009B
:1027E000000000000000007000E000000000000099
:1027F000000000000000630C60000000000000000A
:102800000000000000470E20000000000000000053
:10281000000000004F0F200000000000000000003A
:102820000000005F0FA0000000000000000000009A
:1028300000005E07A07F800000000000000041044F
:1028400000406020FFC00000000000000020820067
:1028500040F020FFC0000000000000002082004087
:10286000F020FFC0000000000000004104004060B4
:10287000207F80000000000000008208005E07A0AA
:102880007F80000000000000010410005F0FA0FF27
:10289000C0000000000000010410004F0F20FFC026
:1028A00000000000000000820800470E20FFC0006A
:1028B000000000000000410400630C603F000000C5
:1028C00000000000000000007000E01E000000009A
:1028D00000000001FFFF807FFFE00C00000000000F
:1028E000000001FFFF8000000000060900FE00005C
:1028F00000000001090008FE0000050808060000AD
:1029000040F0C88888987810050808060000C0F8CC
:102910008888888888F80505050600012030F83089
:10292000200508080600002070F820202020E0057F
:1029300009090600FF2070A8A8B88888702005093A
:10294000090600FFE080C0B0A82830282805090942
:102950000600FFF8A88888888888A8F8050A0A066B
:1029600000FE205050505088A8A88870030303062A
:10297000000340A04000002200250028002B002E6C
:10298000003100340002010000050108010B0100C4
:102990000020002300260029002C002F0032000018
:1029A00001000003010601090105050505070508E9
:1029B000080808020202020A0A08080404040401C2
:1029C00001010101010101030303030303030304E4
:1029D0000707070C0C0C0C0C0C0C0C020202020674
:1029E000060606060606060B0B0B0B0B0B0B0B0164
:1029F0000210202008081020401020408002010210
:102A000001080402010102040810204080804020D7
:102A10001008040201800402018040201008040212
:102A20000108040201010204081020408001020490
:102A3000081020408000000A0B02090C0D0E080748
:102A4000030401000000000000000000000000007E
:102A50000000000000000000000000000000000076
:102A60000012111000000000000000000000000033
:102A700000000000000000000000004B494C4C45E5
:102A8000442E2000202D20496E76616C69642065FB
:102A900078747275646572206E756D62657220213E
:102AA0000A001FFFFFFFFFFFFF600000000001FFA3
:102AB000400000000000FF8000000000007F83CF86
:102AC00000000C303F87FF80000C301F86798000AB
:102AD0000C000F8C30C7838C30E78C30CFC7CC31E3
:102AE000F38C30DCECEC33B98C30D86C6C33198C53
:102AF00030D06C0C33198C30D86C0C33198C30DC22
:102B00006C0E3B198C30CF7C079F198C30C77C032F
:102B10008F19400000000000026000000000000665
:102B20001FFFFFFFFFFFF82020506C616E6E657283
:102B300042756666657242797465733A2000204674
:102B4000726565204D656D6F72793A2000436F6D37
:102B500070696C65643A20536570203330203230E0
:102B600031370A00207C20417574686F723A202842
:102B70005068616E746F6D2C205445564F20544F31
:102B8000524E41444F290A00323031372D30372D13
:102B900030342031323A303000204C61737420558B
:102BA0007064617465643A2000312E312E340A005D
:102BB0004D61726C696E0020536F66747761726547
:102BC0002052657365740A00205761746368646FEE
:102BD000672052657365740A002042726F776E2019
:102BE0006F75742052657365740A002045787465AA
:102BF000726E616C2052657365740A00506F776560
:102C00007255700A0073746172740A006572726F93
:102C1000722077726974696E6720746F2066696CC0
:102C2000650A00456E6473746F70732025632025F8
:102C30006320256320256300205A3A0020593A007A
:102C400020583A00656E6473746F707320686974FD
:102C50003A2000446F6E6520736176696E67206666
:102C6000696C652E0A004D32390053657474696EC3
:102C7000672054726176656C20416363656C657290
:102C80006174696F6E3A200053657474696E6720D1
:102C90005265747261637420416363656C6572612F
:102CA00074696F6E3A200053657474696E672050C2
:102CB00072696E7420416363656C65726174696FDB
:102CC0006E3A200053657474696E67205072696EA5
:102CD0007420616E642054726176656C2041636378
:102CE000656C65726174696F6E3A2000205A00202D
:102CF0005900580020204D61783A2000205A0020C9
:102D00005900580020204D696E3A20004F6E200077
:102D10004F666600536F667420656E6473746F70DF
:102D2000733A2000206F7574206F662072616E67A1
:102D3000650A00536572766F20003A2000205365C3
:102D400072766F200020643A0020693A0020703AC1
:102D50000020643A0020693A0020703A0043290AB2
:102D60000061626C656420286D696E2074656D7009
:102D70002000436F6C6420657874727564657320FD
:102D800061726520004F66660A00466164652048EE
:102D900065696768742000426564204C6576656CDF
:102DA000696E6720004661696C656420746F2065F8
:102DB0006E61626C6520426564204C6576656C6965
:102DC0006E670A004D65736820706F696E742063CA
:102DD000616E6E6F74206265207265736F6C7665CC
:102DE000640A004D34323120696E636F727265631C
:102DF0007420706172616D657465722075736167AE
:102E0000650A004F666673657473206170706C6943
:102E10006564004572723A20546F6F2066617221BA
:102E200000546F6F206661722066726F6D2072654C
:102E3000666572656E636520706F696E740A003A2C
:102E400020007A5F6D696E3A20202D3230207A5F43
:102E50006D61783A20203230005A204F66667365E3
:102E60007420004E6F2063617365206C696768741D
:102E70000A0000002100240027002A002D00300055
:102E8000330001010000040107010A0143616E6E75
:102E90006F74206F70656E207375626469722000B4
:102EA0006563686F3A00436172642072656D6F7686
:102EB0006564004361726420696E73657274656451
:102EC0000007FFFFFFFF00010101016265640A00C6
:102ED0002C2073797374656D2073746F70706564E2
:102EE00021204865617465725F49443A2000486555
:102EF0006174696E67206661696C6564004865612C
:102F000074696E67206661696C6564004865617408
:102F1000696E67206661696C656400486561746903
:102F20006E67206661696C65640056547261762034
:102F30006D696E005654726176206D696E0056544C
:102F4000726176206D696E00566D696E00566D690E
:102F50006E00566D696E00566D6178204500566DA5
:102F60006178204500566D6178204500566D617886
:102F7000205A00566D6178205A00566D6178205AAB
:102F800000566D6178205900566D617820590056C1
:102F90006D6178205900566D6178205800566D613A
:102FA00078205800566D61782058004D6F74696F15
:102FB0006E00416D6178204500416D6178204500CB
:102FC000416D6178205A00416D6178205A00416D51
:102FD0006178205900416D6178205900416D617818
:102FE000205800416D6178205800412D747261763F
:102FF000656C00412D74726176656C00412D7265BF
:10300000747261637400412D72657472616374003F
:10301000416363656C00416363656C004D6F746967
:103020006F6E0000060900FE070192032120FFFFDA
:1030300008FF07FF00000006000001070706020066
:1030400080808080800080030202060105A0A00528
:1030500007070600005050F850F8505005070706C3
:1030600000002078A07028F020050707060000C0A7
:10307000C810204098180507070600006090A0407F
:10308000A89068020303060104C0408003070706F6
:103090000100204080808040200307070601008057
:1030A00040202020408005050506000120A870A8CA
:1030B000200505050600012020F820200203030654
:1030C00002FFC04080050101060003F8020202066B
:1030D0000200C0C00505050600010810204080055B
:1030E000070706000070888888888870030707062D
:1030F000010040C040404040E00507070600007066
:103100008808708080F8050707060000F810201076
:103110000808F005070706000010305090F810105E
:10312000050707060000F880F00808887005070703
:10313000060000708080F088887005070706000090
:10314000F808102020202005070706000070888856
:10315000708888700507070600007088887808085E
:1031600070020505060200C0C000C0C002060606C7
:1031700002FFC0C000C04080040707060000102006
:103180004080402010050303060002F800F8040701
:103190000706010080402010204080050707060038
:1031A00000708808102000200507070600007088BE
:1031B0000868A8A870050707060000708888F888C6
:1031C0008888050707060000F08888F08888F005E1
:1031D0000707060000708880808088700507070652
:1031E0000000F08888888888F0050707060000F846
:1031F0008080F08080F8050707060000F88080F0E6
:10320000808080050707060000708880B888887075
:10321000050707060000888888F88888880107075E
:1032200006020080808080808080050707060000FD
:10323000381010101090600507070600008890A055
:10324000C0A09088050707060000808080808080ED
:10325000F805070706000088D8A888888888050729
:10326000070600008888C8A8988888050707060010
:103270000070888888888870050707060000F08835
:1032800088F080808005070706000070888888A87D
:103290009068050707060000F08888F0A090880570
:1032A0000707060000788080700808F00507070609
:1032B0000000F820202020202005070706000088B5
:1032C00088888888887005070706000088888888AD
:1032D0008850200507070600008888888888A8503D
:1032E00005070706000088885020508888050707D2
:1032F0000600008888885020202005070706000067
:10330000F80810204080F8030707060100E08080DD
:10331000808080E00505050600018040201008033C
:103320000707060100E02020202020E00503030617
:103330000004205088050101060000F80202020680
:1033400002058040050505060000700878887805AC
:1033500007070600008080B0C88888F005050506CC
:103360000000708080887005070706000008086864
:10337000988888780505050600007088F880700533
:1033800007070600003048E04040404005060606BA
:1033900000FF7088887808700507070600008080A5
:1033A000B0C88888880107070602008000808080F6
:1033B00080800308080601FF200020202020A04074
:1033C000040707060000808090A0C0A090030707B4
:1033D000060100C04040404040E0050505060000F1
:1033E000D0A8A8A8A8050505060000B0C888888848
:1033F0000505050600007088888870050606060029
:10340000FFF08888F080800506060600FF7888882F
:10341000780808050505060000B0C880808005050D
:103420000506000070807008F004070706000040E1
:1034300040E0404040300505050600008888889837
:1034400068050505060000888888502005050506E2
:1034500000008888A8A850050505060000885020AF
:1034600050880506060600FF8888887808700505DC
:1034700005060000F8102040F803070706010020A9
:103480004040804040200107070602008080808085
:103490008080800307070601008040402040408074
:1034A000050202060002689000000006000000000D
:1034B00000060000000000060000000000060000FA
:1034C00000000006000000000006000000000006EA
:1034D00000000000000600000000000600000000E0
:1034E00000060000000000060000000000060000CA
:1034F00000000006000000000006000000000006BA
:1035000000000000000600000000000600000000AF
:103510000006000000000006000000000006000099
:103520000000000600000000000600000000000689
:10353000000000000006000000000006000000007F
:103540000006000000000006000000000006000069
:103550000000000600000000000600000000000659
:10356000000000000006000000000006000000004F
:1035700000060000010707060200800080808080AE
:10358000800507070600002070A8A0A87020050786
:1035900007060000304040E04050A8050505060041
:1035A000008870507088050707060000885020F8D2
:1035B00020F82001070706020080808000808080BC
:1035C0000508080600003048205050209060030194
:1035D00001060107A0050707060000F888B8B8B87B
:1035E00088F8050707060001700878887800F80554
:1035F00005050600012850A0502805030306000118
:10360000F8080802020206020640800507070600C5
:1036100000F888A88898A8F8050101060006F804B3
:103620000404060003609090600507070600002070
:1036300020F8202000F804050506000360902040D3
:10364000F0030505060003E020E020E00202020688
:10365000020640800508080600FF8888888898E8E8
:1036600080800507070600007898987818181802D7
:103670000202060202C0C00202020602FF408003EC
:10368000050506000340C04040E0050707060001AD
:10369000708888887000F8050505060001A050288C
:1036A00050A00507070600008890A858B80808052C
:1036B00007070600008890B84898203805080806D3
:1036C0000000C040C048D8380808050707060000B9
:1036D0002000204080887005080806000040200077
:1036E0007088F88888050808060000102000708897
:1036F000F888880508080600002050007088F888BF
:10370000880508080600006890007088F888880519
:1037100008080600005000708888F88888050808A6
:103720000600002050207088F888880507070600EA
:10373000003860A0B8E0A0B80508080600FF70884F
:10374000808088702060050808060000402000F88E
:1037500080F080F8050808060000081000F880F0E6
:1037600080F8050808060000205000F880F080F876
:103770000507070600005000F880F080F8030808ED
:10378000060100804000E0404040E00308080601D8
:1037900000204000E0404040E003080806010040EF
:1037A000A000E0404040E0030707060100A000E061
:1037B000404040E0050707060000704848E84848D8
:1037C0007005080806000068900088C8A898880559
:1037D000080806000040207088888888700508085E
:1037E0000600001020708888888870050808060088
:1037F000002050007088888870050808060000685E
:1038000090007088888870050808060000500070D5
:103810008888888870050505060001885020508832
:103820000508080600FF1070A8A8A8A870400508A1
:1038300008060000402088888888887005080806E7
:103840000000102088888888887005080806000015
:1038500020500088888888700508080600005000FD
:10386000888888888870050808060000102088501D
:10387000202020200509090600FFC040704848703C
:103880004040E00408080601FF609090A09090E09E
:103890008005080806000040200070087888780538
:1038A00008080600001020007008788878050808CD
:1038B0000600002050007008788878050808060087
:1038C00000689000700878887805070706000050A7
:1038D00000700878887805080806000020502070DD
:1038E00008788878050606060000D02878A0A85039
:1038F0000506060600FF708088702060050808062F
:1039000000004020007088F880700508080600005C
:103910001020007088F8807005080806000020500C
:10392000007088F880700507070600005000708856
:10393000F8807003080806010080400040C0404045
:10394000E003080806010020400040C04040E003BA
:10395000080806010040A00040C04040E0030707FF
:10396000060100A00040C04040E005070706000037
:10397000A040A01078887005080806000068900034
:10398000B0C88888880508080600004020007088B4
:103990008888700508080600001020007088888854
:1039A000700508080600002050007088888870059F
:1039B000080806000068900070888888700507076E
:1039C0000600005000708888887005050506000113
:1039D0002000F800200507070600FF1070A8A8A81F
:1039E0007040050808060000402000888888986814
:1039F00005080806000010200088888898680508D7
:103A00000806000020500088888898680507070687
:103A10000000500088888898680509090600FF1092
:103A20002000888888F808700407070601FFC04056
:103A300060506040E00508080600FF500088888854
:103A4000780870526573656E643A20006F6B0020D1
:103A5000746F6F206C6F6E67206578747275736910
:103A60006F6E2070726576656E7465640A002063FF
:103A70006F6C6420657874727573696F6E207072F4
:103A80006576656E7465640A000064FD98F811241B
:103A90001FBECFEFD1E2DEBFCDBF00E00CBF14E010
:103AA000A0E0B2E0EEEEFAE102E00BBF02C0079048
:103AB0000D92AA31B107D9F725E1AAE1B4E001C01E
:103AC0001D92A135B207E1F71DE1C6E4DDE100E09A
:103AD00006C021970109802FFE010F94E00CC53428
:103AE000D10780E00807A9F70E94B9F80D94660D88
:103AF0000C9400002F923F924F925F926F927F92B0
:103B00008F929F92AF92BF92CF92DF92EF92FF92ED
:103B10000F931F93CF93DF93CDB7DEB7CF58D10963
:103B20000FB6F894DEBF0FBECDBF0091980E20E611
:103B3000029F80011124085E124F8091BF0980FF0F
:103B40001AC0E0EAFEE284917F013FEFE31AF30A34
:103B5000811102C0780104C00E9490ADF701F3CF3B
:103B6000D7018D917D01882319F00E9490ADF8CF87
:103B70008AE00E9490AD81E090E09093D40B809316
:103B8000D30B10923904109238048FE380934404CD
:103B9000109243041092420410923404109235049F
:103BA0001092360410923704F80180810F5F1F4F86
:103BB0008032D1F38E34B1F4818190ED980F9A3038
:103BC00020F08D3211F08B3269F43296DF0131969C
:103BD0002C9120532A30D0F3CD01FC010196208195
:103BE0002032D9F3F093DB0BE093DA0B7F01BFEFC8
:103BF000EB1AFB0A10816AE270E0C7010F942E0DE8
:103C0000009731F0FC01319780818032E1F311821D
:103C10001D3429F0143519F0173409F0CBC0F70121
:103C200080812FEFE21AF20A8032C9F380538A3082
:103C300008F0C0C010934404209142043091430422
:103C40004AE03196429FC001439F900D1124DF014D
:103C500011972C91022E000C330B20533109280FA1
:103C6000391F808180538A3060F33093430420935E
:103C70004204DF0131968C918032D9F31D34D1F4A6
:103C80002E31310591F03CF42731310571F02C31A2
:103C9000310581F40AC02537310564F02737310535
:103CA00024F0203A43E0340729F4B0933904A09378
:103CB000380480C010923904109238040091DA0B55
:103CC00061E070E0FD0131968C91882309F472C0A7
:103CD0008132A1F41D3491F42032310579F4F0934E
:103CE0003904E093380463E270E0CF010F942E0DA5
:103CF000009709F45FC0DC011C925CC09FEBD92ED9
:103D0000D80E49E1C42ECD14C0F1AF01FA01908163
:103D10004F5F5F4F9032D1F340ED490F4A3040F092
:103D200043ED490F423020F09B3211F00C94D43611
:103D3000AF01AD2CB12C750183E0F594E7948A9521
:103D4000E1F7C7018C5C9B4F7C018D2D8770DB01F7
:103D500002C0AA0FBB1F8A95E2F7CD01D7019C9143
:103D6000892B8C934115510511F0401B01C040E097
:103D7000D501A65EBB4F4C930AC080913804909148
:103D80003904892B21F4B0933904A093380480813D
:103D900081548A3110F4DF0195CFDF0131969C9177
:103DA00090539A30D0F3CD01FC010196408140320E
:103DB000D9F3F1CF809144048D3411F40C94D028C0
:103DC000843511F40C947336873411F00C94B336A7
:103DD00080914204909143048C31910509F44DC6C1
:103DE0007CF4843091053CF482309105BCF597FF5A
:103DF00029C00C94CD36049709F4F9C50C94CD363E
:103E00008A32910511F40C94E4274CF48D3191051C
:103E100009F490C74E9709F491C70C94CD368B35B1
:103E2000910511F40C9426278C35910511F40C940E
:103E30002B278A35910511F00C94CD361092410450
:103E40000C94CD368091B602882311F40C94CD36B3
:103E50000E94CF9B0E94D2F00C94CD362091B602E6
:103E6000222311F40C94CD3611E0029709F010E0F2
:103E70000E94CF9B82E50E94753D882309F45CC1B6
:103E80000E940F3D6B017C014090E1095090E209D6
:103E90006090E3097090E4092091E5093091E6090A
:103EA0004091E7095091E80923962CAF3DAF4EAF02
:103EB0005FAF23978091F40B9091F50BA091F60BD7
:103EC000B091F70B27968CAF9DAFAEAFBFAF2797E2
:103ED0002091F80B3091F90B4091FA0B5091FB0BAC
:103EE0002B962CAF3DAF4EAF5FAF2B9720E030E06D
:103EF000A901C701B6010F94AC05882309F45DC57B
:103F0000A301920127966CAD7DAD8EAD9FAD279735
:103F10000F94AC05811111C023962CAD3DAD4EAD73
:103F20005FAD23972B966CAD7DAD8EAD9FAD2B977E
:103F30000F94AC05882309F440C520E030E0A901C6
:103F4000C701B6010F94AC05881F8827881F181376
:103F50000BC080E090E0A0E8BFE36B968CAF9DAF14
:103F6000AEAFBFAF6B970AC020E030E040E85FEB38
:103F70006B962CAF3DAF4EAF5FAF6B97A301920135
:103F800027966CAD7DAD8EAD9FAD27970F94E4095C
:103F900063966CAF7DAF8EAF9FAF639723962CADCA
:103FA0003DAD4EAD5FAD23972B966CAD7DAD8EAD27
:103FB0009FAD2B970F94E40967966CAF7DAF8EAFE2
:103FC0009FAF679763962CAD3DAD4EAD5FAD6397E8
:103FD000CA01B9010F9411064B015C0167962CAD23
:103FE0003DAD4EAD5FAD6797CA01B9010F941106A3
:103FF0009B01AC01C501B4010F94E5090F94500C6D
:104000002F966CAF7DAF8EAF9FAF2F9720E030E043
:1040100040E05FE30F9411064B015C01A70196019C
:10402000C701B6010F9411066B017C01A501940133
:10403000C501B4010F9411069B01AC01C701B60183
:104040000F94E4090F94500C9B01AC016B966CAD7E
:104050007DAD8EAD9FAD6B970F9411064B015C014A
:1040600027962CAD3DAD4EAD5FAD2797C301B20194
:104070000F94E50920E030E040E05FE30F94110683
:104080006B017C0167966CAD7DAD8EAD9FAD679782
:1040900090582F962CAD3DAD4EAD5FAD2F970F9440
:1040A000C10A9B01AC01C501B4010F9411069B012B
:1040B000AC01C701B6010F94E509A30192010F9469
:1040C000E4096B017C012B962CAD3DAD4EAD5FAD8F
:1040D0002B9723966CAD7DAD8EAD9FAD23970F943E
:1040E000E50920E030E040E05FE30F9411062B018A
:1040F0003C012F962CAD3DAD4EAD5FAD2F97639635
:104100006CAD7DAD8EAD9FAD63970F94C10A9B01E1
:10411000AC01C501B4010F9411069B01AC01C301B0
:10412000B2010F94E50923962CAD3DAD4EAD5FADC8
:1041300023970F94E40914C089E40E94753D8823F5
:1041400029F00E940F3D6B017C0103C0C12CD12CD2
:1041500076018AE40E94753D8823F9F00E940F3DA4
:104160002B966CAF7DAF8EAF9FAF2B9720E030E0EA
:10417000A901C701B6010F94AC0581111EC020E052
:1041800030E0A9012B966CAD7DAD8EAD9FAD2B9728
:104190000F94AC05811111C010C420E030E0A901DA
:1041A000C701B6010F94AC05882309F406C42B9609
:1041B0001CAE1DAE1EAE1FAE2B97D701C601B05868
:1041C00023968CAF9DAFAEAFBFAF23972B962CAD90
:1041D0003DAD4EAD5FAD2B97505827962CAF3DAF00
:1041E0004EAF5FAF27979C01AD01BC01CD010F948D
:1041F00011064B015C0127962CAD3DAD4EAD5FAD78
:104200002797CA01B9010F9411069B01AC01C501A2
:10421000B4010F94E5090F94500CAB966CAF7DAFD1
:104220008EAF9FAFAB978091E1099091E209A09189
:10423000E309B091E4092F968CAF9DAFAEAFBFAF4D
:104240002F97A7019601BC01CD010F94E5096B964C
:104250006CAF7DAF8EAF9FAF6B972091E50930912A
:10426000E6094091E7095091E80963962CAF3DAF0C
:104270004EAF5FAF63972B962CAD3DAD4EAD5FADAE
:104280002B9763966CAD7DAD8EAD9FAD63970F940C
:10429000E5096F966CAF7DAF8EAF9FAF6F97809142
:1042A000F40B9091F50BA091F60BB091F70BA39640
:1042B0008CAF9DAFAEAFBFAFA3976B962CAD3DADAE
:1042C0004EAD5FAD6B97BC01CD010F94E4096B015E
:1042D0007C012091F80B3091F90B4091FA0B509131
:1042E000FB0BA7962CAF3DAF4EAF5FAFA7976F9676
:1042F0002CAD3DAD4EAD5FAD6F97A7966CAD7DAD6E
:104300008EAD9FADA7970F94E4094B015C0180919E
:10431000E9099091EA09A091EB09B091EC09E396C3
:104320008CAF9DAFAEAFBFAFE3979C01AD01609185
:10433000FC0B7091FD0B8091FE0B9091FF0B0F9485
:10434000E40967966CAF7DAF8EAF9FAF6797209102
:10435000000C3091010C4091020C5091030CAF966F
:104360002CAF3DAF4EAF5FAFAF978091ED0990910D
:10437000EE09A091EF09B091F009E7968CAF9DAFDF
:10438000AEAFBFAFE797A701960123966CAD7DADA9
:104390008EAD9FAD23970F9411062B013C01A50113
:1043A000940127966CAD7DAD8EAD9FAD27970F9490
:1043B00011069B01AC01C301B2010F94E5092B0169
:1043C0003C01A501940123966CAD7DAD8EAD9FADF2
:1043D00023970F9411064B015C01A70196012796C4
:1043E0006CAD7DAD8EAD9FAD27970F9411069B01EF
:1043F000AC01C501B4010F94E409A30192010F942B
:10440000580A6B017C0120E030E0A9010F94AC0553
:1044100087FF0AC02BED3FE049EC50E4C701B6012D
:104420000F94E5096B017C01112351F02BED3FE066
:1044300049EC50E4C701B6010F94E4096B017C011B
:1044400020E030E0A901C701B6010F94AC0581114D
:1044500028C0A3962CAD3DAD4EAD5FADA3972F9672
:104460006CAD7DAD8EAD9FAD2F970F94AC058111D6
:1044700018C0A7962CAD3DAD4EAD5FADA797639626
:104480006CAD7DAD8EAD9FAD63970F94AC05811182
:1044900008C01BEDC12E1FE0D12E19ECE12E10E457
:1044A000F12EAB962CAD3DAD4EAD5FADAB97C701D8
:1044B000B6010F9411069B01AC010F9411064B013C
:1044C0005C0167962CAD3DAD4EAD5FAD6797CA01FF
:1044D000B9010F9411069B01AC01C501B4010F9401
:1044E000E5090F94500C4B015C012FE632E143E8E3
:1044F0005AE30F94AC0587FD5CC2C501B4010F946B
:104500005A0B0F942E0B61967FAF6EAF6197DB0154
:10451000AB2B31F4E1E0F0E06196FFAFEEAF6197D5
:1045200061962EAD3FAD6197B90180E090E00F94A8
:10453000B0054B015C019B01AC01C701B6010F94B2
:10454000C10A2F966CAF7DAF8EAF9FAF2F97A5019D
:10455000940167966CAD7DAD8EAD9FAD67970F945E
:10456000C10AAB966CAF7DAF8EAF9FAFAB97E796AE
:104570002CAD3DAD4EAD5FADE797AF966CAD7DAD6B
:104580008EAD9FADAF970F94E409A50194010F94F0
:10459000C10AAF966CAF7DAF8EAF9FAFAF972F962E
:1045A0002CAD3DAD4EAD5FAD2F97CA01B9010F9453
:1045B000110620E030E040E05FE30F9411069B011C
:1045C000AC0160E070E080E89FE30F94E409679637
:1045D0006CAF7DAF8EAF9FAF6797E3968CAD9DAD0F
:1045E000AEADBFADE39789879A87AB87BC87E79667
:1045F0002CAD3DAD4EAD5FADE7972D873E874F8724
:10460000588B6091390270913A02072E000C880B8A
:10461000990B0F94B2052091170230911802409126
:10462000190250911A020F9411062AE037ED43E265
:104630005CE30F941106A3966CAF7DAF8EAF9FAF76
:10464000A3970E9459CD9B01AC0128533F4F4F4F78
:104650005F4FA7962CAF3DAF4EAF5FAFA7974FAC64
:1046600021965FAC219722966FAC229723967FAC60
:10467000239722242394312CB9E1DB2E61964EAD91
:104680005FAD61972416350609F44FC10E9403E31C
:104690000E9459CDDC01CB01A7962CAD3DAD4EADAE
:1046A0005FADA797821B930BA40BB50BB7FD10C092
:1046B0000E9459CD9B01AC0128533F4F4F4F5F4F94
:1046C000A7962CAF3DAF4EAF5FAFA7970E945EB1EC
:1046D000DA94DD2009F44BC067962CAD3DAD4EADAC
:1046E0005FAD679727966CAD7DAD8EAD9FAD27977B
:1046F0000F9411064B015C012F962CAD3DAD4EADD4
:104700005FAD2F97B201C3010F941106A50194016B
:104710000F94E5097B018C0167962CAD3DAD4EAD44
:104720005FAD6797B201C3010F9411064B015C01A5
:104730002F962CAD3DAD4EAD5FAD2F9727966CAD4E
:104740007DAD8EAD9FAD27970F9411069B01AC01F7
:10475000C501B4010F94E4092B013C01C701D80144
:1047600027968CAF9DAFAEAFBFAF27975BC0B101AF
:1047700080E090E00F94B0052F962CAD3DAD4EAD8E
:104780005FAD2F970F9411064B015C010F94BE0A89
:104790006B017C01C501B4010F94460C4B015C0117
:1047A000A701960123966CAD7DAD8EAD9FAD23978D
:1047B0000F9411062B013C01A50194012B966CADC1
:1047C0007DAD8EAD9FAD2B970F9411069B01AC0173
:1047D000C301B2010F94E5092B013C01A50194012D
:1047E00023966CAD7DAD8EAD9FAD23970F941106D2
:1047F0004B015C01A70196012B966CAD7DAD8EAD92
:104800009FAD2B970F9411069B01AC01C501B4011C
:104810000F94E40927966CAF7DAF8EAF9FAF2797BB
:10482000F9E1DF2E9201A3016B966CAD7DAD8EADEB
:104830009FAD6B970F94E50969837A838B839C8383
:1048400027962CAD3DAD4EAD5FAD27976F966CAD05
:104850007DAD8EAD9FAD6F970F94E5096D837E831F
:104860008F839887AB962CAD3DAD4EAD5FADAB97CA
:1048700069857A858B859C850F94E50969877A8798
:104880008B879C87AF962CAD3DAD4EAD5FADAF979E
:104890006D857E858F8598890F94E5096D877E8764
:1048A0008F87988B80916302882321F0CE01019637
:1048B0000E9437B0C0903C0489819A81AB81BC8151
:1048C00088A399A3AAA3BBA38D819E81AF81B8853C
:1048D0008CA39DA3AEA3BFA389859A85AB85BC8518
:1048E00088A799A7AAA7BBA7AE01485D5F4FBE01E5
:1048F0006C5D7F4FCE0180960E946070A396ECACF9
:10490000FDAC0EAD1FADA3979E01235F3F4FAE01DF
:10491000485D5F4FBE016C5D7F4FCE0180960E9467
:104920002A633FEF231A330AA9CEC0903C0480913A
:10493000F40B9091F50BA091F60BB091F70B88A3B7
:1049400099A3AAA3BBA38091F80B9091F90BA09116
:10495000FA0BB091FB0B8CA39DA3AEA3BFA38091D8
:10496000FC0B9091FD0BA091FE0BB091FF0B88A763
:1049700099A7AAA7BBA7AE01485D5F4FBE016C5DBA
:104980007F4FCE0180960E946070A396ECACFDAC88
:104990000EAD1FADA39720E03CE0AE01485D5F4F38
:1049A000BE016C5D7F4FCE0180960E942A630E94FB
:1049B0001E5C0E94813D0C94CD36E3EAF6E18491C1
:1049C0008F010F5F1F4F882321F00E9490ADF801E7
:1049D000F6CFE9EDF1E084918F010F5F1F4F88233F
:1049E00011F40C94CD360E9490ADF801F4CF80E51F
:1049F0000E94753D882329F00E94EF3C6B017C01E9
:104A000003C0C12CD12C760183E50E94753D88231B
:104A100061F00E940F3D20E030E04AE754E40F943B
:104A200011060F942E0B6B017C010E94FCE40E9486
:104A3000813D8091DC0B9091DD0BA091DE0BB0915C
:104A4000DF0BC80ED91EEA1EFB1E80917102811178
:104A500005C060E08FEE91E00E949CED0E9459CD70
:104A6000DC01CB018C199D09AE09BF09B7FD02C05D
:104A70000C94CD360E945EB1F1CF0E94FCE480E040
:104A80000E9455590E94205A11E010936F0288E548
:104A90000E94463D382E89E50E94463D082F8AE552
:104AA0000E94463D282E311004C0011104C0182771
:104AB00005C0011102C010E001C0182F0E94145C53
:104AC000111105C0311003C0002309F41EC120E0FC
:104AD00030E040EA50E46091FA097091FB0980915E
:104AE000FC099091FD090F94E5096093FC0B70930C
:104AF000FD0B8093FE0B9093FF0B2091E909309101
:104B0000EA094091EB095091EC090F940B0C18162F
:104B10007CF419821A821B821C829E012F5F3F4FF8
:104B20004CEF5BE065EE79E081EE99E00E94405A3F
:104B300011110EC0311003C00111E1C0E6C0011116
:104B400007C080E090E00E94CEAE1123A9F3D7C049
:104B50001092E5091092E6091092E7091092E8090F
:104B60001092E1091092E2091092E3091092E4090F
:104B70000E94FC5FE3E7F6E2C4902496CFAE249750
:104B8000E7E6F6E2C590D590E590F490EBE6F6E224
:104B900085909590A590B490A5019401C701B601A8
:104BA0000F940B0C18162CF4A7019601C501B40143
:104BB00004C0A5019401C701B6010F94C10A239650
:104BC0006CAF7DAF8EAF9FAF239752E3652E56E259
:104BD000752EF3016591759185919491E6E34E2EC2
:104BE000E6E25E2EF20125913591459154910F94A4
:104BF000AC0587FF02C0F30101C0F201459055905A
:104C00006590749023962CAD3DAD4EAD5FAD23976E
:104C1000CA01B9010F94110620E030E040E85FE3DB
:104C20000F94E5090F94500C9B01AC01C301B20134
:104C30000F9411066BAF7CAF8DAF9EAFE4E7F6E249
:104C400024912FAF20E030E040EC5FE3C501B401D8
:104C50000F9411062B013C013FAD632F330F770BEF
:104C6000880B990B0F94B2059B01AC01C301B201F3
:104C70000F94110669837A838B839C8320E030E054
:104C800040EC5FE3C701B6010F9411066B017C0194
:104C900024964FAD2497642F440F770B880B990B04
:104CA0000F94B2059B01AC01C701B6010F94110628
:104CB00068A379A38AA39BA39E01255C3F4F49EE7D
:104CC00059E0BE016F5F7F4FCE0180960E94405A2F
:104CD0001092F1091092E5091092E6091092E70985
:104CE0001092E8091092E1091092E2091092E3098A
:104CF0001092E409111125CF311023CF1DCF81E08F
:104D000090E00E94CEAE111102C0222021F082E07C
:104D100090E00E94CEAE0E94FC5F80913A048093A6
:104D20006F020E94065A83E080931B020E94D7996B
:104D30000C94CD360E94699D0C94CD36C090E1094B
:104D4000D090E209E090E309F090E40988E50E9440
:104D5000753D811109C020E030E040E252E4C70116
:104D6000B6010F94E40902C00E940F3D68A379A325
:104D70008AA39BA3C090E509D090E609E090E709DB
:104D8000F090E80989E50E94753D811109C020E095
:104D900030E040EA51E4C701B6010F94E40902C0D3
:104DA0000E940F3D6B017C0169837A838B839C8316
:104DB0004090F6095090F7096090F8097090F90951
:104DC0002091F2093091F3094091F4095091F509CD
:104DD00068A179A18AA19BA10F94E4094B015C0110
:104DE0002FE632E143E85AEB0F940B0C87FF02C029
:104DF0000C94CD3621E230E04CE853E4C501B40117
:104E00000F94AC05181614F40C94CD36A30192013E
:104E1000C701B6010F94E4096B017C012FE632E172
:104E200043E85AEB0F940B0C87FF02C00C94CD366D
:104E300021E230E04CE853E4C701B6010F94AC0521
:104E4000181614F40C94CD360C94E53681E080935A
:104E500041040C94CD3685E40E94753DB82E811135
:104E600002C00E94FCE42FEC822E22E0922E31EE52
:104E7000C32E39E0D32E48EEE42E4BE0F42E00E0B2
:104E800010E0A12CD4018D914D010E94753D882325
:104E900009F44EC0F6012081318142815381C4570B
:104EA000DF4F2883CC58D040C357DF4F3883CD58CD
:104EB000D040C257DF4F4883CE58D040C157DF4F54
:104EC0005883CF58D0400E940F3DD6016D937D93FB
:104ED0008D939C931397C457DF4F2881CC58D040B3
:104EE000C357DF4F3881CD58D040C257DF4F48817C
:104EF000CE58D040C157DF4F5881CF58D0400330F3
:104F00001105B1F00F94E4099B01AC01F701608138
:104F10007181828193810F94E509D7016D937D930F
:104F20008D939C931397C8010E94825CAA24A3943A
:104F30000F5F1F4FB4E0CB0ED11CE4E0EE0EF11C6E
:104F40000430110509F09ECFAA2019F00E94FC5FE1
:104F500037C0BB20A9F1C090ED09D090EE09E090D8
:104F6000EF09F090F0092091980B3091990B409146
:104F70009A0B50919B0BC701B6010F9411060F9429
:104F8000160C60930E1170930F1180931011909373
:104F90001111C701B6010F94290B2FB7F894609334
:104FA0006C1470936D1480936E1490936F142FBFD4
:104FB0001092FE101092FF10109200111092011129
:104FC0000E94D7990C94CD368091B602882311F4B3
:104FD0000C94CD3689E40E94753D182F882321F06A
:104FE0000E94FF3CF62E01C0F12C8AE40E94753D20
:104FF000082F882331F00E94FF3CE62E111104C0D7
:105000000BC0E12C1123C9F0F3E0FF1510F00C9454
:10501000073CEAE0F2E005C093E0C92ECE14C8F3E5
:105020000CC084918F010F5F1F4F882311F40C94E3
:10503000CD360E9490ADF801F4CF0E94145C11238C
:1050400041F12091F0143091F1144F2D4203B00141
:10505000439F700D11248091FC149091FD14680FF2
:10506000791F072E000C880B990B0F94B205209125
:10507000F2093091F3094091F4095091F5090F9428
:10508000E5096093F40B7093F50B8093F60B909306
:10509000F70B002341F12091F2143091F3145E2DAF
:1050A0005203B001539F700D11242091FE143091D2
:1050B000FF14620F731F072E000C880B990B0F94BF
:1050C000B2052091F6093091F7094091F809509105
:1050D000F9090F94E5096093F80B7093F90B80932D
:1050E000FA0B9093FB0B80E50E94463D8823A1F1CB
:1050F0000E949760882381F11123B1F020E030E015
:1051000040E252E46091F40B7091F50B8091F60B44
:105110009091F70B0F94E5096093F40B7093F50BE6
:105120008093F60B9093F70B0023B1F020E030E072
:1051300040EA51E46091F80B7091F90B8091FA0B01
:105140009091FB0B0F94E5096093F80B7093F90BAA
:105150008093FA0B9093FB0B86E40E94753D8823A5
:10516000D9F00E940F3D6B017C0120E030E0A901E5
:105170000F940B0C181684F420E030E040E752E462
:10518000C701B6010F94C10A609317027093180209
:105190008093190290931A020E94D2F00C94CD369B
:1051A00080914204909143048537910511F40C9449
:1051B00059310CF0D0C08C34910509F42FC50CF096
:1051C00068C08831910509F4A2C29CF5823191052D
:1051D00009F405C784F497FF02C00C94CD368230E1
:1051E00091050CF4BFC1419711F00C94CD360E948B
:1051F000BE9B0C94CD368531910509F47EC23CF4FA
:10520000449711F00C94CD36EEE6F2E033C28631CD
:10521000910509F476C2479711F00C94CD3640E021
:1052200061E080913804909139040E94F9710C94E6
:10523000CD368E31910509F4BBC2C4F48A31910593
:1052400009F476C20CF46EC28B31910509F474C274
:105250004C9711F00C94CD3640E060E0809138041A
:10526000909139040E94F9710C94CD3680329105E9
:1052700009F4AEC30CF4EDC38A32910509F48FC46E
:105280008B34910511F00C94CD360E944C770C9420
:10529000CD368A36910509F45CC6B4F5843591059E
:1052A00009F49DC6E4F48135910509F47FC64CF4F8
:1052B0008D34910511F00C94CD360E9419D20C94C6
:1052C000CD368235910509F487C68335910511F0F5
:1052D0000C94CD3681E0809340040C94CD368C350F
:1052E000910509F4CAC634F48535910509F4ACC6B4
:1052F0000C94CD368836910509F494C4893691050D
:1053000009F4B0C50C94CD368F36910509F4F4C478
:1053100084F48C36910509F45AC50CF437C68D36E1
:10532000910509F4E5C58E36910509F4D2C40C94B3
:10533000CD368137910509F451C50CF44BC5823740
:10534000910509F422C78337910511F00C94CD36ED
:10535000E4EDF4E01FC78C32A1E09A0711F40C943D
:105360006B320CF078C0893C910511F40C944C32EE
:10537000A4F58C38910509F45AC5B4F48737910522
:1053800009F4D6C70CF49DC78837910511F40C9425
:10539000FE318937910511F00C94CD3610926F02D1
:1053A00010923A040C94CD368B39910509F477C5E7
:1053B0004CF48139910511F00C94CD360E94969AE7
:1053C0000C94CD368E3B910509F4AAC5883C910515
:1053D00011F40C9404320C94CD36833D910511F4F4
:1053E0000C945532ECF48C3C910511F40C944F3232
:1053F0004CF48B3C910511F00C94CD360E949099A1
:105400000C94CD368D3C910511F40C9452328E3CA7
:10541000910511F00C94CD360E94F0C90C94CD3654
:105420008D3D910511F40C9465323CF48C3D910551
:1054300011F40C9458320C94CD36823E910511F43F
:105440000C9468328831914011F00C94CD360E9452
:105450001AC80C94CD36843AF1E09F0711F40C94ED
:105460005036F4F5833631E0930711F40C945F362F
:10547000C4F48E3251E0950711F40C94973214F471
:105480000C9494328F32B1E09B0711F40C949A3251
:105490008033914011F00C94CD360E94FEC60C94DE
:1054A000CD368139F1E09F0711F40C9448364CF465
:1054B0008039914011F00C94CD360E94FCE40C949C
:1054C000CD36823941E0940711F40C944C368A3978
:1054D000914011F00C94CD360E9478C60C94CD36D4
:1054E000863FA1E09A0711F40C945936FCF48C3AEB
:1054F000E1E09E0711F40C9453364CF4853A914048
:1055000011F00C94CD360E9439C50C94CD36843FF1
:1055100031E0930711F40C945636853F914011F019
:105520000C94CD360E94C9430C94CD36833553E09C
:10553000950711F40C945C364CF4873F914011F0C0
:105540000C94CD360E941BC40C94CD36803AE3E017
:105550009E0709F47AC2873E934011F40C94623698
:105560000C94CD36A0903804B090390480E50E94A8
:10557000753D882359F00E94EF3C6B017C0111E0DE
:10558000672B682B692B31F410E004C010E0C12CAC
:10559000D12C760183E50E94753D8823F1F00E94AD
:1055A0000F3D20E030E04AE754E40F9411060F94D9
:1055B0002E0B6B017C01111112C0672B682B692B1C
:1055C00071F4A114B10459F0D5018C91882339F0FC
:1055D00061E0C5010E94BAED07C0112391F360E0BC
:1055E0008CE492E00E949CED83E090E09093D40BD9
:1055F0008093D30B81E080934D140E94FCE40E94C1
:10560000813DC114D104E104F104E9F08091DC0B87
:105610009091DD0BA091DE0BB091DF0BC80ED91E6F
:10562000EA1EFB1E0E9459CDDC01CB018C199D099D
:10563000AE09BF09B7FF1AC080914D148823B1F09D
:105640000E945EB1EFCF80914D14882319F00E9423
:105650005EB1F9CF8091B21160E0882319F08DE33B
:1056600092E002C089E292E00E949CED10924D14FB
:105670000C94CD3684918F010F5F1F4F882321F04A
:105680000E9490ADF801F6CF1092381410923714A2
:1056900040E050E0BA0183EE91E10E9473B58BE1E6
:1056A000E3EEF1E1DE01159601900D928A95E1F7A6
:1056B0008091E1119091E2119C838B8385E393E0CB
:1056C0009A83898340E050E0BE016F5F7F4F87ED92
:1056D00093E00E94F8D2CE0101960E941B4CEFE5A8
:1056E000F2E084918F010F5F1F4F882311F40C9417
:1056F000CD360E9490ADF801F4CF0E942D750C9428
:10570000CD361092B2111092B3110C94CD36809117
:10571000B311882319F081E08093B2110E944C7775
:105720000C94CD361092B2110E9410780C94CD36A4
:105730000E94A49B0C94CD368091B311882351F123
:10574000EFE7F2E084918F010F5F1F4F882321F074
:105750000E9490ADF801F6CF60912E1470912F1435
:1057600080913014909131144AE00E9497AD8FE2FD
:105770000E9490AD60912A1470912B1480912C148A
:1057800090912D144AE00E9497AD8AE00E9490AD5E
:105790000C94CD36E1E9F2E084918F010F5F1F4F49
:1057A000882311F40C94CD360E9490ADF801F4CF0B
:1057B0008091B311882311F40C94CD368DE793E1D9
:1057C0000E94FDB78DE793E10E94C0B91092B1111C
:1057D0001092B011E0903804F09039048091B31128
:1057E000882311F40C94CD360E9437D51D8218867B
:1057F0001C821B8285E393E09A8389838FED91E17C
:105800009093FF118093FE11F70180818F3209F090
:1058100068C06FE270E0C7010F942E0D8C010F5F1E
:105820001F4F9E012F5F3F4F49010115110509F4DC
:105830005EC06FE270E0C8010F942E0D6C010097FE
:1058400009F456C00817190708F052C05C01A01AE5
:10585000B10AA501B801CE0180960F94570DE0E280
:10586000F0E0EC0FFD1FEA0DFB1D10828E01005EC3
:105870001F4FD8018D918D01882319F00E9490ADA2
:10588000F8CF8AE00E9490AD6091FE117091FF11F7
:105890006115710511F06C5F7F4F21E0AE01405E34
:1058A0005F4FCE0105960E94AFBB811112C0BE01B1
:1058B000605E7F4F88EC92E00E94A5558EE20E94C8
:1058C00090AD8AE00E9490ADC4010E941B4C0C94E4
:1058D000CD369092FF118092FE1186010F5F1F4F0F
:1058E000A4CF80E092E19093FF118093FE11870195
:1058F0006091FE117091FF116115710511F06C5FDF
:105900007F4F18A21BA222E0A801CE0180960E9420
:10591000AFBB811102C0F12C14C0CE0180960E9451
:1059200066D28823C1F361E0CE0180960E94E1B780
:10593000009789F325EEFC0120831BA20E9433B55A
:10594000F82ECE0180960E94154CFF2011F182EABC
:10595000E82E82E0F82EF7018491882331F0FFEFE2
:10596000EF1AFF0A0E9490ADF6CFD8018D918D01FC
:10597000882319F00E9490ADF8CF8AE00E9490AD84
:1059800010922E1410922F14109230141092311481
:1059900019C0B0EBEB2EB2E0FB2EF7018491882307
:1059A00031F0FFEFEF1AFF0A0E9490ADF6CFD80159
:1059B0008D918D01882319F00E9490ADF8CF8EE271
:1059C0000E9490ADCE0101960E941B4C0C94CD36E6
:1059D0008091B21181110E94FCE4E0903804F090B3
:1059E000390480E50E94463D182F882319F00E9453
:1059F0009760182F8091B311882311F40C94CD3641
:105A0000412F61E0C7010E94F97183E50E94753D55
:105A1000882381F00E94FF3CAB01BC0140932E140F
:105A200050932F1460933014709331148DE793E1E9
:105A30000E9473B58091B311882319F081E080939F
:105A4000B21111110C94CD3669CE0E94999B0C9421
:105A5000CD360E9431D2ACE3CA2ED12CE12CF12CF0
:105A6000A70196010F948709762E672ECA01B90106
:105A7000A70196010F9487096B017C01CA01B90146
:105A800028E130E040E050E00F9487094B015C01D1
:105A9000C9016DE671E00F94B90C8E010F5F1F4FC5
:105AA0006115710599F06F927F92DF92CF929F926C
:105AB0008F929F938F937F936F9384E093E09F9354
:105AC0008F931F930F930F94450512C00097B1F069
:105AD0006F927F92DF92CF929F928F929F938F933C
